:100000000C94B6010C94E7010C94E7010C94E70101
:100010000C94E7010C94E7010C94E7010C94E701C0
:100020000C94E7010C94E7010C94E7010C94E701B0
:100030000C94E7010C94A4060C94E7010C94E701DE
:100040000C94E7010C94E7010C94E7010C94E70190
:100050000C94E7010C94E7010C94E7010C945A0608
:100060000C94E7010C946D070C9443070C94E70182
:100070000C94E7010C94E7010C94E7010C94E70160
:100080000C94E7010C94E7010C94E7010C94E70150
:100090000C94E7010C94E7010C94E7010C94E70140
:1000A0000C94E7010C94E7010C94E7010C94E70130
:1000B0000C94E7010C94E7010C94E7010C94E70120
:1000C0000C94E7010C94E7010C94E7010C94E70110
:1000D0000C94E7010C94E7010C94E7010C94E70100
:1000E0000C94E7010C9436030C94EC030C949F03DE
:1000F0000C9407020C942C020C944C020C944702B2
:100100000C9448020C943A020C9426020C94BC0DF8
:100110000C9445030C9409030C94A3070C940D0252
:100120000C9430020C9415020C9422020C941102CF
:100130000C941C020C9434020C943E020C94670341
:100140000C9459030C9442020C94190200407A104A
:10015000F35A00A0724E18090010A5D4E80000E878
:100160007648170000E40B54020000CA9A3B0000D6
:1001700000E1F505000080969800000040420F0065
:100180000000A08601000000102700000000E80326
:10019000000000006400000000000A0000000000F1
:1001A0000100000000002C76D888DC674F0823DFB0
:1001B000C1DFAE59E1B1B796E5E3E453C63AE65183
:1001C000997696E8E6C28426EB898C9B62ED407CAA
:1001D0006FFCEFBC9C9F40F2BAA56FA5F490055A46
:1001E0002AF75C936B6CF9676DC11BFCE0E40D476B
:1001F000FEF520E6B500D0ED902E0300943577058E
:100200000080841E080000204E0A000000C80C3345
:100210003333330F986E12831141EF8D2114893BD4
:10022000E65516CFFEE6DB18D1844B381BF77C1D54
:10023000901DA4BBE424203284725E228100C9F1A7
:1002400024ECA1E53D270200002100240027002A1C
:10025000002D003000330001010000040107010AF5
:100260000100002200250028002B002E0031003460
:100270000002010000050108010B0100002000231D
:1002800000260029002C002F00320000010000038E
:10029000010601090105050505070508080808020A
:1002A0000202020A0A08080404040401010101010F
:1002B0000101010303030303030303040707070CFE
:1002C0000C0C0C0C0C0C0C020202020606060606B4
:1002D0000606060B0B0B0B0B0B0B0B010210202061
:1002E000080810204010204080020102010804028A
:1002F0000101020408102040808040201008040200
:100300000180040201804020100804020108040258
:10031000010102040810204080010204081020405E
:100320008000000A0B02090C0D0E080703040100EF
:1003300000000000000000000000000000000000BD
:10034000000000000000000000000000001211107A
:10035000000000000000000000000000000000009D
:100360000000000000000000A307BC0D11241FBE08
:10037000CFEFD1E2DEBFCDBF00E00CBF23E0A2E9AA
:10038000B2E001C01D92A439B207E1F712E0A0E08B
:10039000B2E0E8EDF8E200E00BBF02C007900D927A
:1003A000A239B107D9F711E0C5EBD1E000E006C0F2
:1003B00021970109802FFE010E943C12C43BD10706
:1003C00080E00807A9F70E94DD070C945A140C94EA
:1003D00000008150823108F05AC0E82FF0E08827F1
:1003E000EB50FE4F8F4F0C943C121502190207027E
:1003F0000D02110247021C02220226022C023002C8
:1004000034023A023E024702420248024C02809104
:1004100080008F77809380000895809180008F7D89
:10042000F9CF80918000877FF5CF84B58F7784BD29
:10043000089584B58F7DFBCF8091B0008F77809336
:10044000B00008958091B0008F7DF9CF8091900029
:100450008F77809390000895809190008F7DF9CFE1
:1004600080919000877FF5CF8091A0008F77809357
:10047000A00008958091A0008F7DF9CF8091A00009
:10048000877FF5CF809120018F7780932001089599
:10049000809120018F7DF9CF80912001877FF5CF5A
:1004A000CF93DF93282F30E0F901EF5DFC4F84916B
:1004B000F901E552FD4FD491F901EB56FD4FC4917E
:1004C000CC23A1F081110E94E901EC2FF0E0EE0FA6
:1004D000FF1FE558FD4FA591B491EC91ED2381E00C
:1004E00090E009F480E0DF91CF91089580E090E002
:1004F000FACF1F93CF93DF93282F30E0F901EF5D00
:10050000FC4F8491F901E552FD4FD491F901EB566E
:10051000FD4FC491CC23A9F0162F81110E94E9014F
:10052000EC2FF0E0EE0FFF1FEF59FD4FA591B491B6
:100530008FB7F894EC91111108C0D095DE23DC93AD
:100540008FBFDF91CF911F910895DE2BF8CFCF930E
:10055000DF9390E0FC01E552FD4F24918B569D4FB7
:10056000FC0184918823D1F090E0880F991FFC0151
:10057000E95BFD4FA591B491FC01EF59FD4FC59189
:10058000D49161110EC09FB7F8948C91E22FE09541
:100590008E238C932881E223E8839FBFDF91CF9144
:1005A00008958FB7F894EC91E22BEC938FBFF6CFC0
:1005B0003FB7F8948091DC029091DD02A091DE02B9
:1005C000B091DF0226B5A89B05C02F3F19F0019618
:1005D000A11DB11D3FBFBA2FA92F982F8827BC019D
:1005E000CD01620F711D811D911D42E0660F771FC5
:1005F000881F991F4A95D1F708952FB7F8946091F5
:10060000D8027091D9028091DA029091DB022FBF5B
:100610000895AF92BF92CF92DF92EF92FF920F9325
:100620001F93CF93DF936C017B018B01040F151F88
:10063000EB015E01AE18BF08C017D10759F06991F0
:10064000D601ED91FC910190F081E02DC601199544
:10065000892B79F7C501DF91CF911F910F91FF9001
:10066000EF90DF90CF90BF90AF900895FC01538D35
:10067000448D252F30E0842F90E0821B930B54177C
:1006800010F0CF96089501970895FC01918D828D09
:10069000981761F0A28DAE0FBF2FB11D5D968C91A2
:1006A000928D9F5F9F73928F90E008958FEF9FEFE1
:1006B0000895FC01918D828D981731F0828DE80F9D
:1006C000F11D858D90E008958FEF9FEF0895FC0157
:1006D000918D228D892F90E0805C9F4F821B910924
:1006E0008F739927089580EE92E00E94670321E0BE
:1006F000892B09F420E0822F0895FC01A48DA80F16
:10070000B92FB11DA35ABF4F2C91848D90E0019653
:100710008F739927848FA689B7892C93A089B18973
:100720008C91837080648C93938D848D981306C014
:100730000288F389E02D80818F7D80830895EF9278
:10074000FF920F931F93CF93DF93EC0181E0888F8B
:100750009B8D8C8D98131AC0E889F989808185FF5B
:1007600015C09FB7F894EE89FF896083E889F989FD
:1007700080818370806480839FBF81E090E0DF91FF
:10078000CF911F910F91FF90EF900895F62E0B8D52
:1007900010E00F5F1F4F0F731127E02E8C8D8E110D
:1007A0000CC00FB607FCFACFE889F989808185FF74
:1007B000F5CFCE010E947D03F1CFEB8DEC0FFD2F25
:1007C000F11DE35AFF4FF0829FB7F8940B8FEA892F
:1007D000FB8980818062CFCFCF93DF93EC01888D3E
:1007E0008823B9F0AA89BB89E889F9898C9185FDAC
:1007F00003C0808186FD0DC00FB607FCF7CF8C913A
:1008000085FFF2CF808185FFEDCFCE010E947D0371
:10081000E9CFDF91CF91089580E090E0892B29F016
:100820000E94730381110E94000080E090E0892BF8
:1008300049F080E090E0892B29F00E9400008111AE
:100840000E94000080E090E0892B49F080E090E079
:10085000892B29F00E94000081110E94000080E095
:1008600090E0892B49F080E090E0892B29F00E94EC
:10087000000081110C94000008958F929F92AF9216
:10088000BF92CF92DF92EF92FF921F93CF93DF93AD
:1008900061E0809189030E9479020E94FD02C0906C
:1008A0008B03D0908C03E0908D03F0908E036C1539
:1008B0007D058E059F0540F410928B0310928C03EA
:1008C00010928D0310928E0320918F0321111EC070
:1008D000C0908B03D0908C03E0908D03F0908E033A
:1008E0006C197D098E099F09603D7740810591054E
:1008F00068F481E0DF91CF911F91FF90EF90DF903E
:10090000CF90BF90AF909F908F90089510928F03DB
:100910000E94FD0260938B0370938C0380938D0380
:1009200090938E0310928703109286031092850392
:10093000109284031092830361E0809189030E94E6
:10094000A70260E0809189030E9479020E94D80288
:100950004B015C0184E1C82ED12CE12CF12C0E94CA
:10096000D802681979098A099B09683E7340810594
:100970009105A8F381E0C81AD108E108F10828EE32
:10098000820E23E0921EA11CB11CC114D104E1040B
:10099000F10429F7F89461E0809189030E947902BB
:1009A0008BE990E00197F1F760E0809189030E9464
:1009B000A70210E081E0C0E0D0E0E82EF12C8091A9
:1009C00089030E9450028E159F0519F4DF5FDF3FF7
:1009D000B1F7809189030E945002DF3FA1F0C4303B
:1009E00078F0C0FD0DC0E12FE695E695E695F0E0C4
:1009F000ED57FC4F9081990FD73008F590831F5F1A
:100A0000CF5FC535C9F678941832B8F040918703A6
:100A10002091830380918403280F3327331F809113
:100A20008503280F311D80918603820F932F911D1E
:100A300099274817190609F45CCF80E05BCF9160D5
:100A4000DDCF42E050E065E272E080EE92E00C948F
:100A50000903CF93DF93FC0144815581608171814B
:100A600080EE92E00E940903EC010E9421058C0FA8
:100A70009D1FDF91CF910895CF93DF93EC01888183
:100A80009981009711F00E94E012198218821D824C
:100A90001C821B821A82DF91CF910895FC01808114
:100AA0009181009711F00C94E01208950F931F9319
:100AB000CF93DF93EC0188819981009759F02A81C7
:100AC0003B812617370730F081E0DF91CF911F91EE
:100AD0000F9108958B016F5F7F4F0E9469130097FC
:100AE00059F0998388831B830A832C813D81232BB2
:100AF00059F7FC011082E8CF80E0E7CFEF92FF9238
:100B00000F931F93CF93DF936115710541F480E03C
:100B1000DF91CF911F910F91FF90EF9008954115B4
:100B20005105B1F07B01EC010C811D81040F151FF3
:100B3000B8010E945605882351F3288139818C81A0
:100B40009D81B701820F931F0E9453141D830C8354
:100B500081E0DECFCF93DF93EC01FB010190002019
:100B6000E9F73197AF01461B570B0E947E058111B3
:100B700003C0CE010E943C05CE01DF91CF910895C4
:100B8000CF93DF93EC01FB0144815581608171813A
:100B90000E947E05811103C0CE010E943C05CE015A
:100BA000DF91CF910895EF92FF920F931F93CF9310
:100BB000DF93EC017B018A01BA010E945605811185
:100BC0000BC0CE010E943C05CE01DF91CF911F9159
:100BD0000F91FF90EF9008951D830C83B7018881DA
:100BE00099810E945314F0CFEF92FF920F931F93BD
:100BF000CF93DF93CDB7DEB7A1970FB6F894DEBFE2
:100C00000FBECDBF7C01CB01BA01F701118210826A
:100C100013821282158214828E010F5F1F4F22E011
:100C200044E00E94C00D0097C9F0FC010190002033
:100C3000E9F73197AF01481B590BBC01C7010E946E
:100C4000D305A1960FB6F894DEBF0FBECDBFDF91DE
:100C5000CF911F910F91FF90EF900895C7010E94CF
:100C60003C05EFCFCF93DF93EC01FB01861797078D
:100C700049F0608171816115710541F044815581B0
:100C80000E94D305CE01DF91CF9108950E943C05CB
:100C9000F9CFFC0111821082138212821582148214
:100CA000FB0101900020E9F73197AF01461B570B7C
:100CB0000C94D3051F920F920FB60F9211242F930D
:100CC0003F938F939F93AF93BF938091D80290915E
:100CD000D902A091DA02B091DB023091D70223E071
:100CE000230F2D3758F50196A11DB11D2093D70272
:100CF0008093D8029093D902A093DA02B093DB02DA
:100D00008091DC029091DD02A091DE02B091DF02C1
:100D10000196A11DB11D8093DC029093DD02A0938A
:100D2000DE02B093DF02BF91AF919F918F913F910F
:100D30002F910F900FBE0F901F90189526E8230F4C
:100D40000296A11DB11DD2CF1F920F920FB60F9226
:100D500011240BB60F922F933F934F935F936F9392
:100D60007F938F939F93AF93BF93EF93FF93809164
:100D7000B6029091B702A091B802B091B902892B46
:100D80008A2B8B2BE1F19091A502E091A602F091C4
:100D9000A7028081892780838091B6029091B70253
:100DA000A091B802B091B902181619061A061B06CE
:100DB0009CF48091B6029091B702A091B802B091D4
:100DC000B9020197A109B1098093B6029093B702C5
:100DD000A093B802B093B902FF91EF91BF91AF9188
:100DE0009F918F917F916F915F914F913F912F9143
:100DF0000F900BBE0F900FBE0F901F901895809113
:100E00000002E6E4F2E0E4919FEF90930002E2300A
:100E1000E9F040F4EE2389F0E13091F060E00E94C7
:100E20007902DACFE43049F110F1E530B9F7909169
:100E300073009D7F90937300F1CF10926E00EECF00
:100E400090916F009D7F90936F00E8CF909170001C
:100E50009D7F9093700091E09093B0009091B100CD
:100E6000987F94609093B1001092B300D7CF909187
:100E700071009D7F90937100D1CF909172009D7F02
:100E800090937200CBCF1F920F920FB60F92112446
:100E90000BB60F922F933F934F935F936F937F9374
:100EA0008F939F93AF93BF93EF93FF9380EE92E066
:100EB0000E947D03FF91EF91BF91AF919F918F9120
:100EC0007F916F915F914F913F912F910F900BBE4A
:100ED0000F900FBE0F901F9018951F920F920FB694
:100EE0000F9211240BB60F922F938F939F93EF9332
:100EF000FF93E091F002F091F1028081E091F6021F
:100F0000F091F70282FD1DC090818091F9028F5F00
:100F10008F732091FA02821741F0E091F902F0E01C
:100F2000E052FD4F958F8093F902FF91EF919F91D1
:100F30008F912F910F900BBE0F900FBE0F901F90AF
:100F400018958081F2CFE0EEF2E01382128288EEF3
:100F500093E0A0E0B0E084839583A683B78387E124
:100F600092E09183808385EC90E09587848784EC80
:100F700090E09787868780EC90E0918B808B81EC66
:100F800090E0938B828B82EC90E0958B848B86EC47
:100F900090E0978B868B118E128E138E148EE3E861
:100FA000F3E089E0868386E1878381E0848768E2D5
:100FB00072E08DE793E00C944906CF93DF93CDB7B1
:100FC000DEB76C970FB6F894DEBF0FBECDBF789436
:100FD00084B5826084BD84B5816084BD85B582603E
:100FE00085BD85B5816085BD80916E0081608093EF
:100FF0006E00109281008091810082608093810058
:101000008091810081608093810080918000816067
:10101000809380008091B10084608093B1008091C2
:10102000B00081608093B0008091910082608093D5
:101030009100809191008160809391008091900057
:101040008160809390008091A10082608093A100D4
:101050008091A10081608093A1008091A0008160B7
:101060008093A00080912101826080932101809172
:101070002101816080932101809120018160809312
:10108000200180917A00846080937A0080917A00B8
:10109000826080937A0080917A00816080937A00E8
:1010A00080917A00806880937A001092C10060E09D
:1010B000809189030E94A70261E0809189030E94C8
:1010C000790210928B0310928C0310928D03109270
:1010D0008E03E091F002F091F10282E08083E091D2
:1010E000EC02F091ED021082E091EE02F091EF023D
:1010F00080E180831092F802E091F402F091F50211
:1011000086E08083E091F202F091F30280818061B9
:101110008083E091F202F091F30280818860808305
:10112000E091F202F091F302808180688083E09187
:10113000F202F091F30280818F7D80838CE0E7E002
:10114000F2E0A2E9B2E001900D928A95E1F71092E7
:10115000C8028DE0E9ECF2E0DF011D928A95E9F723
:1011600061E087E10E94A702B0EF2B2EB6E03B2E94
:101170008090920290909302A0909402B090950279
:1011800020E030E048ED51E4B401C5010E942F1089
:10119000880F880B1091C80281238093C70220E03A
:1011A00030E040EF51E4B401C5010E94321218163C
:1011B000ACF581E018271093D6020E94FD02698FDA
:1011C0007A8F8B8F9C8F80919E0290919F02A0912D
:1011D000A002B091A102C98CDA8CEB8CFC8CC81AED
:1011E000D90AEA0AFB0AD701C601883E9340A10545
:1011F000B10508F4C5C10E943D04882341F08091E7
:101200008A038B3069F018F08551823028F1C12CA7
:10121000D12CA0ECEA2EAFE7FA2E0BC010E0CBCF1A
:101220006091850370E090E080E00E9434106B01D3
:101230007C010E943D04882309F484C480918A03C0
:101240008B30A9F120F08551823008F4C7C2612C9F
:10125000712C00EC1FE734C010918503612F6F776C
:1012600070E090E080E00E94361020E030E040E83E
:1012700053E40E9495106B017C016091860370E03D
:1012800090E080E00E943610A70196010E94541160
:1012900020E030E040E251E40E94C0116B017C018B
:1012A00017FFC7CFF7FAF094F7F8F094C2CF609128
:1012B000830370E090E080E00E9434103B018C01D9
:1012C000A7019601C701B6010E943712811102C021
:1012D00046015701C401D501809392029093930275
:1012E000A0939402B09395029301A801B301C801A1
:1012F0000E94371243015801882351F043015801DD
:101300006090960270909702009198021091990255
:10131000C301D8018093960290939702A0939802FC
:10132000B093990280917B00877F80937B0080E45B
:1013300080937C0080917A00806480937A00809111
:101340007A0086FDFCCF6091780070917900072EBD
:10135000000C880B990B0E94361023E333E343E122
:1013600051E40E94951020E030EC4FE754E40E94D5
:10137000C01160939A0270939B0280939C02909399
:101380009D02A7019601C701B6010E943712811183
:1013900008C09401A501B401C5010E943712882339
:1013A00051F04FE150E061E372E080EE92E00E9484
:1013B00009030E9421051C8A1B8A1E8A1D8A188E19
:1013C0001F8A60917D0370917E036115710541F064
:1013D0004091810350918203CE0143960E94D30530
:1013E0004090920250909302609094027090950207
:1013F0008090960290909702A0909802B0909902E7
:10140000C0909A02D0909B02E0909C02F0909D02C6
:1014100061E572E0CE0101960E944906BE016D5E53
:101420007F4FCE0101960E94C00563E572E00E94E5
:10143000AA051E861D86188A1F861A8A198ABC016B
:10144000CE010D960E943206CE0101960E944E05F5
:10145000B301A201CE0107960E94F4056FE572E088
:10146000CE0101960E944906BE01695F7F4FCE0101
:1014700001960E94C0056DE672E00E94AA05DC019B
:1014800014964D915C9115976D917C91CE010D96BE
:101490000E947E05CE0101960E944E05CE01079660
:1014A0000E944E05B501A401CE0107960E94F405E5
:1014B00060E772E0CE0101960E944906BE01695FB5
:1014C0007F4FCE0101960E94C0056DE672E00E943A
:1014D000AA05FC014481558160817181CE010D9680
:1014E0000E947E05CE0101960E944E05CE01079610
:1014F0000E944E05B701A601CE0107960E94F40591
:101500006BE772E0CE0101960E944906BE01695F59
:101510007F4FCE0101960E94C005DC0114964D91CB
:101520005C9115976D917C91CE010D960E947E0580
:10153000CE0101960E944E05CE0107960E944E05EF
:1015400041E050E06AE872E0CE010D960E947E050F
:10155000CE010D960E942905CE010D960E944E05E2
:10156000CE0143960E944E05C98CDA8CEB8CFC8C24
:10157000C0929E02D0929F02E092A002F092A1023D
:101580008091D602882339F10E94FD0221E030E0EB
:101590003093CA022093C9022093CB02F3E0EF2ECE
:1015A000F12CF092CD02E092CC026093CE027093C7
:1015B000CF028093D0029093D10288EE93E0A0E016
:1015C000B0E08093D2029093D302A093D402B09360
:1015D000D5022093C8028091C702882339F10E9466
:1015E000FD021092CA021092C90221E02093CB02A0
:1015F000A3E0B0E0B093CD02A093CC026093CE0202
:101600007093CF028093D0029093D102E8EECE2E59
:10161000E3E0DE2EE12CF12CC092D202D092D30274
:10162000E092D402F092D5021092C8028091CB02CF
:10163000882309F479C00E94FD026B017C0180912E
:10164000CC029091CD02181619060CF065C080915D
:10165000CE029091CF02A091D002B091D102B701F9
:10166000A601481B590B6A0B7B0B8091D20290910B
:10167000D302A091D402B091D502481759076A0746
:101680007B0708F449C00091C9021091CA0261E5C4
:1016900072E0CE0101960E9449066DE773E0CE012B
:1016A00001960E94C0056CE872E00E94AA051886A7
:1016B0001F821A8619861C861B86BC01CE010796DE
:1016C0000E943206CE0101960E944E056DE272E044
:1016D0000130110511F46FE272E041E050E0CE01FB
:1016E00007960E947E05CE0107960E942905CE012D
:1016F00007960E944E058091CC029091CD020197F1
:101700009093CD028093CC02C092CE02D092CF02B1
:10171000E092D002F092D1028091CC029091CD0261
:10172000892B11F41092CB021091C8020E94FD0285
:10173000112309F416C20091C3021091C402209132
:10174000C5023091C6026B017C01C01AD10AE20ABF
:10175000F30A97018601043F11402105310508F481
:10176000E2C16093C3027093C4028093C502909358
:10177000C6028091C20291E089278093C2028091C3
:101780000002873109F050C0E6E4F2E0149117FD41
:10179000C5C161E087E10E94A702112309F422C1BB
:1017A000123009F039C18091B100887F8260809346
:1017B000B1008DED8093B30084E893E0A0E0B0E049
:1017C0008093B6029093B702A093B802B093B90287
:1017D00080917000826080937000A0C1609183034B
:1017E00070E090E080E00E94341020E030E040E8BB
:1017F00053E40E9495102B013C016091840370E03A
:1018000090E080E00E943610A30192010E945411E2
:1018100020E030E040E251E40E94C0114FCD612C45
:10182000712C00EC1FE76ACD8F3F09F077C187E18B
:1018300080930002E6E4F2E01491812F1F3F09F447
:101840006DC1123009F46CC060F4112389F11130BC
:1018500009F447C087FD62C161E087E10E94A702E9
:101860009FCF143009F49FC008F47DC0153091F764
:1018700010922001109221018091210188608093B3
:10188000210180912101816080932101ECEAF2E045
:101890008491E82FF0E0EE0FFF1FEF59FD4F859187
:1018A0009491E2EFF2E0E491E093A20215E071CFAF
:1018B00014BC15BC84B5826084BD85B5816085BDCE
:1018C000ECEAF2E08491E82FF0E0EE0FFF1FEF5911
:1018D000FD4F85919491E2EFF2E0E491E093A9024B
:1018E00058CF109280001092810080918100886012
:1018F0008093810080918100816080938100ECEA77
:10190000F2E08491E82FF0E0EE0FFF1FEF59FD4F5A
:1019100085919491E2EFF2E0E491E093A80239CF4F
:101920001092B0001092B1008091B000826080935C
:10193000B0008091B10081608093B100ECEAF2E0E8
:101940008491E82FF0E0EE0FFF1FEF59FD4F8591D6
:1019500094919093A7028093A602E2EFF2E0E491C3
:10196000E093A50216CF1092900010929100809102
:1019700091008860809391008091910081608093B4
:101980009100ECEAF2E08491E82FF0E0EE0FFF1F07
:10199000EF59FD4F85919491E2EFF2E0E491E093ED
:1019A000A40213E0F6CE1092A0001092A100809144
:1019B000A10088608093A1008091A1008160809344
:1019C000A100ECEAF2E08491E82FF0E0EE0FFF1FB7
:1019D000EF59FD4F85919491E2EFF2E0E491E093AD
:1019E000A302D7CE85B5887F826085BD8DED87BD8A
:1019F00094E8C92E93E0D92EE12CF12CC092BE02BE
:101A0000D092BF02E092C002F092C10280916E00BB
:101A1000826080936E0082C01130E1F48091810079
:101A2000887F8160809381003092890020928800B5
:101A300024E833E040E050E02093BA023093BB0248
:101A40004093BC025093BD0280916F0082608093EE
:101A50006F0064C01330F1F480919100887F816041
:101A600080939100309299002092980084E8C82ECB
:101A700083E0D82EE12CF12CC092B202D092B302B6
:101A8000E092B402F092B50280917100826080937E
:101A9000710044C01430E1F48091A100887F81601E
:101AA0008093A1003092A9002092A80024E833E09E
:101AB00040E050E02093AE023093AF024093B0027A
:101AC0005093B1028091720082608093720026C0B0
:101AD0001530E1F480912101887F8160809321019C
:101AE000309229012092280184E893E0A0E0B0E040
:101AF0008093AA029093AB02A093AC02B093AD0284
:101B00008091730082608093730008C01230C1F02E
:101B10006CF4112399F0113009F486CF6091C20260
:101B200086E00E9479020E940C0422CB143009F452
:101B3000B9CF0CF497CF153099F2F0CF80EF57CF93
:101B400080EF38CEA7019601C701B6010E94371277
:101B5000811165CE46015701612C712C00EC1FE705
:101B6000B9CB8091C2028823F1F260E086E00E9446
:101B700079021092C202D7CF8DE793E00C944E0504
:101B8000EF920F931F93CF93DF93E80134E047FD6B
:101B900034E1042E000C550B57FF03C051954195BD
:101BA0005109E32E022F242FAE010E94DE0DCE013B
:101BB000DF91CF911F910F91EF9008958F929F9297
:101BC000AF92BF92CF92DF92EF92FF920F931F934B
:101BD000CF93DF9300D000D000D0CDB7DEB76A013D
:101BE000F22EB02E102FFBE3AF2EA01608F41BE34D
:101BF0001F5F012F27E0AE014F5F5F4F0E94570F1D
:101C0000BC018981982F9970913009F44EC09BE2F4
:101C1000E1FC04C09E2D9170E0FC49C05E2D507126
:101C2000E82FE87083FF55C084E0911101C083E084
:101C3000EF2DE81B8F1508F0E0E0D6018E2F20E293
:101C40005523C9F1992329F0D6019C93C601019629
:101C50006C0196012D5F3F4FE2FE33C08EE4D6014A
:101C60008C9391E411969C93119712968C93D901C1
:101C70008E2F90E281112AC0E20FF32FF11D108206
:101C80008EEF9FEF29960FB6F894DEBF0FBECDBF43
:101C9000DF91CF911F910F91FF90EF90DF90CF9048
:101CA000BF90AF909F908F9008959DE2B7CF90E244
:101CB000B5CF2D9381508111FCCFCE0ED11CE0E029
:101CC000C1CF8EE6D6018C9391E6CCCF9D93815007
:101CD000D1CF482F447082FF3DC084E0911101C0F4
:101CE00083E08F1510F4EF2DE81BD6018E2F20E234
:101CF000552309F1992329F0D6019C93C601019639
:101D00006C0196012D5F3F4FE2FE1BC089E4D601B6
:101D10008C938EE411968C93119786E412968C9393
:101D2000D9018E2F90E2882309F4A6CF9D9381508C
:101D3000FACF2D9381508111FCCFCE0ED11CE0E063
:101D4000D9CF89E6D6018C938EE611968C931197A4
:101D500086E6E4CF9B0177FF02C030E020E0A1E0FF
:101D6000B0E0911102C0B0E0A0E0F9013196AE0FF1
:101D7000BF1F8B2C912CBB2009F461C05401EFEFE5
:101D8000AE1ABE0AAA0DBB1DFA161B0619F014F0F6
:101D90004F2D4A1B511188C0E3FC59C07601A42F76
:101DA000B0E2A1114FC0C40ED11C992309F45BC04D
:101DB00040E0D6011196F60190836D01552309F498
:101DC00048C0012F060F9A81582F507184FF03C01D
:101DD000913309F4015010160CF047C0093008F097
:101DE00008E0EEE2FE2E5B01A01AB1088501919495
:101DF000819491082F3F320729F4D601FC92F60115
:101E000031966F016217730794F1021713077CF57F
:101E1000DB01A21BB30BAA24A394B12CAC0EBD1EF4
:101E2000AA0DBB1D11968C9121503109D601119636
:101E300028153905F4F0F60180836D01DBCFB12C54
:101E4000A12CA0CFF701B1937F01A150AACF91118E
:101E5000B0CFD601942F50E302C05D939150911101
:101E6000FCCFC40ED11C40E0ACCF01E0BACF80E380
:101E7000DBCF6217730731F4963388F4953311F48E
:101E8000552369F0F6018083FD01842F90E28111D2
:101E900008C0A40FB11D1C9290E080E0F3CE81E356
:101EA000F1CF91938150F3CF911183CF8ACF283016
:101EB00008F027E03327DA01990F311D87FD916083
:101EC00000966105710539F432602E5F3D9330E371
:101ED0002A95E1F708959F3F30F08038710561053C
:101EE00009F03C5F3C5F3D93913008F08068911DA4
:101EF000DF93CF931F930F93FF92EF92192F987F49
:101F00009695E92F96959695E90FFF27EA55FE4F8E
:101F100099273327EE24FF24A701E70105900894B1
:101F2000079428F4360FE71EF81E491F511D660F4F
:101F3000771F881F991F0694A1F70590079428F42E
:101F4000E70EF81E491F561FC11D770F881F991FE6
:101F5000661F0694A1F70590079428F4F80E491F10
:101F6000561FC71FD11D880F991F661F771F069424
:101F7000A1F70590079420F4490F561FC71FD81FDB
:101F8000990F661F771F881F0694A9F784911095F3
:101F9000177041F0D695C79557954795F794E794F4
:101FA0001A95C1F7ECE4F1E068941590159135911C
:101FB0006591959105907FE27395E118F10A430BC5
:101FC000560BC90BD009C0F7E10CF11E431F561F79
:101FD000C91FD01D7EF4703311F48A95E6CFE894C2
:101FE000015030F0080F0AF40027021708F4202FE0
:101FF0002395022F7A3328F079E37D932A95E9F728
:1020000010C07D932A9589F6069497956795379524
:1020100017951794E118F10A430B560BC90BD00919
:1020200098F023957E9173957A3308F070E37C9352
:102030002013B8F77E9170617D9330F0839571E342
:102040007D9370E32A95E1F71124EF90FF900F91B3
:102050001F91CF91DF91992787FD909508950E9458
:10206000711008F481E00895E89409C097FB3EF4EC
:1020700090958095709561957F4F8F4F9F4F9923D5
:10208000A9F0F92F96E9BB279395F6958795779553
:102090006795B795F111F8CFFAF4BB0F11F460FF13
:1020A0001BC06F5F7F4F8F4F9F4F16C0882311F06B
:1020B00096E911C0772321F09EE8872F762F05C07F
:1020C000662371F096E8862F70E060E02AF09A951A
:1020D000660F771F881FDAF7880F9695879597F90F
:1020E0000895990F0008550FAA0BE0E8FEEF1616A9
:1020F0001706E807F907C0F012161306E407F507FC
:1021000098F0621B730B840B950B39F40A2661F06F
:10211000232B242B252B21F408950A2609F4A14012
:10212000A6958FEF811D811D08950E94A8100C9423
:1021300019110E940B1138F00E94121120F0952302
:1021400011F00C9402110C94081111240C944D11EF
:102150000E942A1170F3959FC1F3950F50E0551F0F
:10216000629FF001729FBB27F00DB11D639FAA27EC
:10217000F00DB11DAA1F649F6627B00DA11D661F3B
:10218000829F2227B00DA11D621F739FB00DA11D5C
:10219000621F839FA00D611D221F749F3327A00D16
:1021A000611D231F849F600D211D822F762F6A2FB2
:1021B00011249F5750409AF0F1F088234AF0EE0F17
:1021C000FF1FBB1F661F771F881F91505040A9F744
:1021D0009E3F510580F00C9402110C944D115F3F0D
:1021E000E4F3983ED4F3869577956795B795F79580
:1021F000E7959F5FC1F7FE2B880F911D96958795F8
:1022000097F9089597F99F6780E870E060E0089576
:102210009FEF80EC089500240A94161617061806FE
:102220000906089500240A941216130614060506DA
:102230000895092E0394000C11F4882352F0BB0F6B
:1022400040F4BF2B11F460FF04C06F5F7F4F8F4FCE
:102250009F4F089557FD9058440F551F59F05F3F09
:1022600071F04795880F97FB991F61F09F3F79F0B8
:1022700087950895121613061406551FF2CF46953A
:10228000F1DF08C0161617061806991FF1CF8695BC
:102290007105610508940895E894BB2766277727A0
:1022A000CB0197F908955058BB27AA270E946B11BC
:1022B0000C9419110E940B1138F00E94121120F099
:1022C00039F49F3F19F426F40C9408110EF4E095AC
:1022D000E7FB0C940211E92F0E942A1158F3BA1758
:1022E000620773078407950720F079F4A6F50C942C
:1022F0004C110EF4E0950B2EBA2FA02D0B01B90155
:1023000090010C01CA01A0011124FF27591B99F06B
:10231000593F50F4503E68F11A16F040A22F232F77
:10232000342F4427585FF3CF469537952795A795C7
:10233000F0405395C9F77EF41F16BA0B620B730B6E
:10234000840BBAF09150A1F0FF0FBB1F661F771FDF
:10235000881FC2F70EC0BA0F621F731F841F48F494
:10236000879577956795B795F7959E3F08F0B0CF1D
:102370009395880F08F09927EE0F97958795089504
:102380000E94D4110C9419110E94121158F00E944D
:102390000B1140F029F45F3F29F00C940211511108
:1023A0000C944D110C9408110E942A1168F3992382
:1023B000B1F3552391F3951B550BBB27AA27621741
:1023C0007307840738F09F5F5F4F220F331F441F4E
:1023D000AA1FA9F335D00E2E3AF0E0E832D0915082
:1023E0005040E695001CCAF72BD0FE2F29D0660F6F
:1023F000771F881FBB1F261737074807AB07B0E8B2
:1024000009F0BB0B802DBF01FF2793585F4F3AF0B7
:102410009E3F510578F00C9402110C944D115F3FD2
:10242000E4F3983ED4F3869577956795B795F7953D
:102430009F5FC9F7880F911D9695879597F9089525
:10244000E1E0660F771F881FBB1F621773078407C1
:10245000BA0720F0621B730B840BBA0BEE1F88F7D0
:10246000E09508950E94711008F48FEF08950E947E
:102470007110880B990B0895EE0FFF1F881F8BBFFB
:102480000790F691E02D19940F931F93CF93DF934C
:102490008230910510F482E090E0E0919203F09197
:1024A000930330E020E0B0E0A0E0309799F42115EC
:1024B000310509F44AC0281B390B24303105D8F501
:1024C0008A819B816115710589F1FB019383828368
:1024D000FE0111C0408151810281138148175907C3
:1024E000E0F04817590799F4109761F012960C9391
:1024F000129713961C933296CF01DF91CF911F91C3
:102500000F9108950093920310939303F4CF211534
:10251000310551F04217530738F0A901DB019A0148
:10252000BD01DF01F801C1CFEF01F9CF9093930313
:1025300080939203CDCFFE01E20FF31F819391931D
:102540002250310939832883D7CF209190033091CD
:102550009103232B41F42091030230910402309324
:1025600091032093900320910102309102022115E2
:10257000310541F42DB73EB7409105025091060256
:10258000241B350BE0919003F0919103E217F307C0
:10259000A0F42E1B3F0B2817390778F0AC014E5FD3
:1025A0005F4F2417350748F04E0F5F1F509391037C
:1025B00040939003819391939FCFF0E0E0E09CCF14
:1025C000CF93DF930097E9F0FC01329713821282D8
:1025D000A0919203B0919303ED0130E020E01097B9
:1025E000A1F420813181820F931F209190033091BB
:1025F00091032817390709F061C0F0939103E09324
:102600009003DF91CF910895EA01CE17DF07E8F537
:102610004A815B819E0141155105B1F7E901FB83B8
:10262000EA8349915991C40FD51FEC17FD0761F456
:10263000808191810296840F951FE9019983888397
:10264000828193819B838A83F0E0E0E012968D91F2
:102650009C9113970097B9F52D913C911197CD015D
:102660000296820F931F20919003309191032817B7
:10267000390739F6309751F510929303109292036F
:10268000B0939103A0939003BCCFD383C2834081C6
:102690005181840F951FC817D90761F44E5F5F4FB2
:1026A00088819981480F591F518340838A819B817A
:1026B000938382832115310509F0B0CFF093930302
:1026C000E09392039ECFFD01DC01C0CF1382128202
:1026D000D7CF4F925F926F927F928F929F92AF92DD
:1026E000BF92CF92DF92EF92FF920F931F93CF93FF
:1026F000DF938C01009799F4CB01DF91CF911F916B
:102700000F91FF90EF90DF90CF90BF90AF909F9090
:102710008F907F906F905F904F900C944412FC01CB
:10272000E60FF71F9C0122503109E217F30708F466
:10273000AEC0D901CD91DC911197C617D70720F112
:10274000C530D10578F0CE0104978617970750F071
:10275000C61BD70B2297C193D1936D937C93CF0166
:102760000E94E012C801DF91CF911F910F91FF905D
:10277000EF90DF90CF90BF90AF909F908F907F9021
:102780006F905F904F9008955B01AC1ABD0A4C01A9
:102790008C0E9D1EA0919203B0919303512C412C5D
:1027A000F12CE12C109731F58091900390919103D9
:1027B0008815990509F05CC04616570608F058C000
:1027C0008091010290910202009741F48DB79EB76B
:1027D0004091050250910602841B950BE817F907FA
:1027E00008F055C0F0939103E0939003F9017183D1
:1027F0006083B8CF8D919C91119712966C9012972F
:1028000013967C901397A815B90559F56C0142E011
:10281000C40ED11CCA14DB0420F1AC014A195B09B7
:10282000DA011296159780F0628273825183408399
:10283000D9016D937C93E114F10471F0D7011396E3
:10284000FC93EE9312978ECF22968C0F9D1FF90169
:1028500091838083F301EFCFF0939303E09392038E
:1028600081CF4816590608F42C017D01D3019ACF77
:10287000CB010E9444127C01009749F0AE01B801DF
:102880000E944A14C8010E94E01287016BCF10E039
:1028900000E068CFFB01DC0102C001900D924150C5
:1028A0005040D8F70895FB01DC0101900D92002003
:1028B000E1F7089511E0C5EBD1E000E006C0802FFC
:1028C000FE010E943C122196011DC63BD10780E00B
:0828D0000807A9F7F894FFCFF7
:1028D800FF000094038000000080BF000080BF005C
:1028E800000000000000009F0309033603EC0367A3
:1028F80003450359030D0A004D61696E004F0041FD
:10290800005B4552524F525D2053656E736F7220C3
:1029180072656164696E677320696E76616C69645B
:10292800005B005D202D20646174613A207B007497
:10293800656D70657261747572653A20002C2000AF
:1029480068756D69646974793A20006261747465A8
:1029580072794C6576656C3A20007D005D202D20EB
:0229680000006D
:00000001FF
