:100000000C94B5010C94E6010C94E6010C94E60105
:100010000C94E6010C94E6010C94E6010C94E601C4
:100020000C94E6010C94E6010C94E6010C94E601B4
:100030000C94E6010C94E6010C94E6010C94E601A4
:100040000C94E6010C94E6010C94E6010C94E60194
:100050000C94E6010C94E6010C94E6010C94350630
:100060000C94E6010C94A9060C947F060C94E6010E
:100070000C94E6010C94E6010C94E6010C94E60164
:100080000C94E6010C94E6010C94E6010C94E60154
:100090000C94E6010C94E6010C94E6010C94E60144
:1000A0000C94E6010C94E6010C94E6010C94E60134
:1000B0000C94E6010C94E6010C94E6010C94E60124
:1000C0000C94E6010C94E6010C94E6010C94E60114
:1000D0000C94E6010C94E6010C94E6010C94E60104
:1000E0000C94E6010C9410020C940C020C94330254
:1000F0000C941B020C9447020C9438030C942102BC
:100100000C942B020C945A030C94FC020C944B029A
:100110000C943D020C9406020C942F020C941402D1
:100120000C9425020C9441020C9492030C94180236
:100130000C94DF030C94DF060C9439020C944C03EE
:100140000C9429030C9446020C94A90A00407A10DE
:10015000F35A00A0724E18090010A5D4E80000E878
:100160007648170000E40B54020000CA9A3B0000D6
:1001700000E1F505000080969800000040420F0065
:100180000000A08601000000102700000000E80326
:10019000000000006400000000000A0000000000F1
:1001A0000100000000002C76D888DC674F0823DFB0
:1001B000C1DFAE59E1B1B796E5E3E453C63AE65183
:1001C000997696E8E6C28426EB898C9B62ED407CAA
:1001D0006FFCEFBC9C9F40F2BAA56FA5F490055A46
:1001E0002AF75C936B6CF9676DC11BFCE0E40D476B
:1001F000FEF520E6B500D0ED902E0300943577058E
:100200000080841E080000204E0A000000C80C3345
:100210003333330F986E12831141EF8D2114893BD4
:10022000E65516CFFEE6DB18D1844B381BF77C1D54
:10023000901DA4BBE424203284725E228100C9F1A7
:1002400024ECA1E53D2700002100240027002A001E
:100250002D003000330001010000040107010A01F4
:1002600000002200250028002B002E003100340061
:1002700002010000050108010B010000200023001D
:10028000260029002C002F0032000001000003018D
:100290000601090105050505070508080808020209
:1002A00002020A0A08080404040401010101010110
:1002B00001010303030303030303040707070C0CF3
:1002C0000C0C0C0C0C0C02020202060606060606BA
:1002D00006060B0B0B0B0B0B0B0B0102102020085F
:1002E0000810204010204080020102010804020191
:1002F0000102040810204080804020100804020100
:100300008004020180402010080402010804020158
:1003100001020408102040800102040810204080DF
:1003200000000A0B02090C0D0E080703040100006F
:1003300000000000000000000000000000000000BD
:10034000000000000000000000000000121110007A
:10035000000000000000000000000000000000009D
:10036000000000000000DF06A90A11241FBECFEF25
:10037000D1E2DEBFCDBF00E00CBF23E0AAE8B2E0CF
:1003800001C01D92A036B207E1F712E0A0E0B2E092
:10039000EEE9F2E200E00BBF02C007900D92AA382E
:1003A000B107D9F711E0C4EBD1E000E006C0219716
:1003B0000109802FFE010E941F0FC33BD10780E07F
:1003C0000807A9F70E9419070C943D110C9400002E
:1003D0008150823108F05AC0E82FF0E08827EC50B5
:1003E000FE4F8F4F0C941F0F1402180206020C02CE
:1003F000100246021B02210225022B022F023302A9
:1004000039023D024602410247024B0280918000C0
:100410008F77809380000895809180008F7DF9CF41
:1004200080918000877FF5CF84B58F7784BD089554
:1004300084B58F7DFBCF8091B0008F778093B00023
:1004400008958091B0008F7DF9CF809190008F77D3
:10045000809390000895809190008F7DF9CF8091D6
:100460009000877FF5CF8091A0008F778093A000C8
:1004700008958091A0008F7DF9CF8091A000877FA3
:10048000F5CF809120018F7780932001089580918E
:1004900020018F7DF9CF80912001877FF5CFCF9309
:1004A000DF93282F30E0F901E05EFC4F8491F901E1
:1004B000E652FD4FD491F901EC56FD4FC491CC2387
:1004C000A1F081110E94E801EC2FF0E0EE0FFF1F78
:1004D000E658FD4FA591B491EC91ED2381E090E0B9
:1004E00009F480E0DF91CF91089580E090E0FACFA9
:1004F0001F93CF93DF93282F30E0F901E05EFC4F8C
:100500008491F901E652FD4FD491F901EC56FD4F6B
:10051000C491CC23A9F0162F81110E94E801EC2F81
:10052000F0E0EE0FFF1FE05AFD4FA591B4918FB799
:10053000F894EC91111108C0D095DE23DC938FBFA5
:10054000DF91CF911F910895DE2BF8CFCF93DF93EA
:1005500090E0FC01E652FD4F24918C569D4FFC012A
:1005600084918823D1F090E0880F991FFC01EA5B09
:10057000FD4FA591B491FC01E05AFD4FC591D49176
:1005800061110EC09FB7F8948C91E22FE0958E23F5
:100590008C932881E223E8839FBFDF91CF91089558
:1005A0008FB7F894EC91E22BEC938FBFF6CF3FB767
:1005B000F8948091A4029091A502A091A602B09116
:1005C000A70226B5A89B05C02F3F19F00196A11DD3
:1005D000B11D3FBFBA2FA92F982F8827BC01CD018D
:1005E000620F711D811D911D42E0660F771F881FEC
:1005F000991F4A95D1F70895AF92BF92CF92DF929B
:10060000EF92FF920F931F93CF93DF936C017B01C7
:100610008B01040F151FEB015E01AE18BF08C01758
:10062000D10759F06991D601ED91FC910190F081CB
:10063000E02DC6011995892B79F7C501DF91CF917E
:100640001F910F91FF90EF90DF90CF90BF90AF90F0
:100650000895FC01538D448D252F30E0842F90E0C8
:10066000821B930B541710F0CF96089501970895AD
:10067000FC01918D828D981761F0A28DAE0FBF2F76
:10068000B11D5D968C91928D9F5F9F73928F90E0CC
:1006900008958FEF9FEF0895FC01918D828D98173B
:1006A00031F0828DE80FF11D858D90E008958FEF78
:1006B0009FEF0895FC01918D228D892F90E0805C41
:1006C0009F4F821B91098F73992708958CEA92E0BE
:1006D0000E945A0321E0892B09F420E0822F08951B
:1006E000FC01A48DA80FB92FB11DA35ABF4F2C91A7
:1006F000848D90E001968F739927848FA689B7899E
:100700002C93A089B1898C91837080648C93938D94
:10071000848D981306C00288F389E02D80818F7D37
:1007200080830895EF92FF920F931F93CF93DF93EF
:10073000EC0181E0888F9B8D8C8D98131AC0E8891D
:10074000F989808185FF15C09FB7F894EE89FF89EC
:100750006083E889F98980818370806480839FBF8A
:1007600081E090E0DF91CF911F910F91FF90EF908A
:100770000895F62E0B8D10E00F5F1F4F0F7311279A
:10078000E02E8C8D8E110CC00FB607FCFACFE889D5
:10079000F989808185FFF5CFCE010E947003F1CFEA
:1007A000EB8DEC0FFD2FF11DE35AFF4FF0829FB749
:1007B000F8940B8FEA89FB8980818062CFCFCF9339
:1007C000DF93EC01888D8823B9F0AA89BB89E88979
:1007D000F9898C9185FD03C0808186FD0DC00FB61F
:1007E00007FCF7CF8C9185FFF2CF808185FFEDCF9D
:1007F000CE010E947003E9CFDF91CF91089580E090
:1008000090E0892B29F00E94660381110E9400006C
:1008100080E090E0892B49F080E090E0892B29F07E
:100820000E94000081110E94000080E090E0892B6E
:1008300049F080E090E0892B29F00E9400008111AE
:100840000E94000080E090E0892B49F080E090E079
:10085000892B29F00E94000081110C94000008955A
:100860008F929F92AF92BF92CF92DF92EF92FF92C0
:100870001F93CF93DF9361E0809155030E9478022C
:100880002FB7F8948091A8029091A902A091AA0292
:10089000B091AB022FBF4091570350915803609124
:1008A000590370915A0384179507A607B70740F4B8
:1008B00010925703109258031092590310925A0342
:1008C00020915B0321111EC04091570350915803A2
:1008D0006091590370915A03841B950BA60BB70BBB
:1008E000803D9740A105B10568F481E0DF91CF918B
:1008F0001F91FF90EF90DF90CF90BF90AF909F90AF
:100900008F90089510925B032FB7F8948091A802FE
:100910009091A902A091AA02B091AB022FBF80933F
:10092000570390935803A0935903B0935A0310921E
:1009300053031092520310925103109250031092DD
:100940004F0361E0809155030E94A60260E0809110
:1009500055030E9478020E94D7024B015C0184E19A
:10096000C82ED12CE12CF12C0E94D70268197909EC
:100970008A099B09683E734081059105A8F381E0CF
:10098000C81AD108E108F10828EE820E23E0921E71
:10099000A11CB11CC114D104E104F10429F7F8949D
:1009A00061E0809155030E9478028BE990E0019705
:1009B000F1F760E0809155030E94A60210E081E00B
:1009C000C0E0D0E0E82EF12C809155030E944F0248
:1009D0008E159F0519F4DF5FDF3FB1F78091550356
:1009E0000E944F02DF3FA1F0C43078F0C0FD0DC07F
:1009F000E12FE695E695E695F0E0E15BFC4F90810E
:100A0000990FD73008F590831F5FCF5FC535C9F6C2
:100A100078941832B8F04091530320914F0380919D
:100A20005003280F3327331F80915103280F311DA6
:100A300080915203820F932F911D99274817190611
:100A400009F453CF80E052CF9160DDCF42E050E017
:100A500064E272E08CEA92E00C94FC02CF93DF93A4
:100A6000EC0188819981009711F00E94C30F1982CF
:100A700018821D821C821B821A82DF91CF910895F9
:100A8000FC0180819181009711F00C94C30F0895AF
:100A90000F931F93CF93DF93EC0188819981009787
:100AA00059F02A813B812617370730F081E0DF912A
:100AB000CF911F910F9108958B016F5F7F4F0E941F
:100AC0004C10009759F0998388831B830A832C81EB
:100AD0003D81232B59F7FC011082E8CF80E0E7CF5E
:100AE000EF92FF920F931F93CF93DF9361157105E0
:100AF00041F480E0DF91CF911F910F91FF90EF9033
:100B0000089541155105B1F07B01EC010C811D8167
:100B1000040F151FB8010E944805882351F328814E
:100B200039818C819D81B701820F931F0E943611FC
:100B30001D830C8381E0DECFCF93DF93EC01FB01BB
:100B400001900020E9F73197AF01461B570B0E9437
:100B50007005811103C0CE010E942E05CE01DF91E8
:100B6000CF910895CF93DF93EC01FB014481558130
:100B7000608171810E947005811103C0CE010E94C5
:100B80002E05CE01DF91CF910895EF92FF920F9342
:100B90001F93CF93DF93EC017B018A01BA010E947E
:100BA000480581110BC0CE010E942E05CE01DF91B8
:100BB000CF911F910F91FF90EF9008951D830C83AB
:100BC000B701888199810E943611F0CFEF92FF9290
:100BD0000F931F93CF93DF93CDB7DEB7A1970FB6D7
:100BE000F894DEBF0FBECDBF7C01CB01BA01F70187
:100BF0001182108213821282158214828E010F5F7D
:100C00001F4F22E044E00E94AD0A0097C9F0FC01AA
:100C100001900020E9F73197AF01481B590BBC0147
:100C2000C7010E94C505A1960FB6F894DEBF0FBE9E
:100C3000CDBFDF91CF911F910F91FF90EF9008955D
:100C4000C7010E942E05EFCFFC0111821082138292
:100C5000128215821482FB0101900020E9F731977E
:100C6000AF01461B570B0C94C5051F920F920FB690
:100C70000F9211242F933F938F939F93AF93BF9322
:100C80008091A8029091A902A091AA02B091AB0212
:100C90003091A30223E0230F2D3758F50196A11DB3
:100CA000B11D2093A3028093A8029093A902A09360
:100CB000AA02B093AB028091A4029091A502A091E8
:100CC000A602B091A7020196A11DB11D8093A402B6
:100CD0009093A502A093A602B093A702BF91AF91F3
:100CE0009F918F913F912F910F900FBE0F901F906A
:100CF000189526E8230F0296A11DB11DD2CF1F9291
:100D00000F920FB60F9211240BB60F922F933F93B1
:100D10004F935F936F937F938F939F93AF93BF9303
:100D2000EF93FF938CEA92E00E947003FF91EF91A2
:100D3000BF91AF919F918F917F916F915F914F91F3
:100D40003F912F910F900BBE0F900FBE0F901F90F1
:100D500018951F920F920FB60F9211240BB60F9297
:100D60002F938F939F93EF93FF93E091BC02F091A9
:100D7000BD028081E091C202F091C30282FD1DC0DC
:100D800090818091C5028F5F8F732091C602821778
:100D900041F0E091C502F0E0E455FD4F958F80935E
:100DA000C502FF91EF919F918F912F910F900BBEF4
:100DB0000F900FBE0F901F9018958081F2CFECEA34
:100DC000F2E01382128288EE93E0A0E0B0E0848328
:100DD0009583A683B78386E192E09183808385EC37
:100DE00090E09587848784EC90E09787868780ECF5
:100DF00090E0918B808B81EC90E0938B828B82ECE6
:100E000090E0958B848B86EC90E0978B868B118E8F
:100E1000128E138E148EEFE4F3E089E0868386E170
:100E2000878381E0848767E272E089E493E00C9431
:100E30002406CF93DF93CDB7DEB7A0970FB6F89413
:100E4000DEBF0FBECDBF789484B5826084BD84B50B
:100E5000816084BD85B5826085BD85B5816085BDB5
:100E600080916E00816080936E001092810080916D
:100E700081008260809381008091810081608093F5
:100E80008100809180008160809380008091B1001A
:100E900084608093B1008091B00081608093B00045
:100EA0008091910082608093910080919100816097
:100EB0008093910080919000816080939000809158
:100EC000A10082608093A1008091A1008160809345
:100ED000A1008091A00081608093A00080912101F9
:100EE00082608093210180912101816080932101A2
:100EF0008091200181608093200180917A0084603C
:100F000080937A0080917A00826080937A00809149
:100F10007A00816080937A0080917A008068809363
:100F20007A001092C10060E0809155030E94A602F1
:100F300061E0809155030E9478021092570310924D
:100F400058031092590310925A03E091BC02F09199
:100F5000BD0282E08083E091B802F091B902108274
:100F6000E091BA02F091BB0280E180831092C4024A
:100F7000E091C002F091C10286E08083E091BE0260
:100F8000F091BF02808180618083E091BE02F09188
:100F9000BF02808188608083E091BE02F091BF0231
:100FA000808180688083E091BE02F091BF028081E1
:100FB0008F7D80838CE0E6E0F2E0ABE8B2E0019068
:100FC0000D928A95E1F71092A1021092A2023324A9
:100FD000339470E4272E8E01035F1F4F8CEA92E05A
:100FE0000E945A031816190634F48CEA92E00E9403
:100FF000380380938A0280918A02813409F06AC0A2
:101000003092A2028091A20281113092A1028091BD
:10101000A00281111092A1028091A1029FB7F894C1
:101020002091A8023091A9024091AA025091AB02EE
:10103000298F3A8F4B8F5C8F9FBF882309F47DC225
:1010400080919C0290919D02A0919E02B0919F027E
:10105000281B390B4A0B5B0BDA01C901843F914015
:10106000A105B10508F41DC28FB7F8942091A8021C
:101070003091A9024091AA025091AB022D8F3E8F70
:101080004F8F58A38FBF8091970290919802A091A3
:101090009902B0919A02281B390B4A0B5B0BDA01BB
:1010A000C901883E9340A105B10508F4E6C10E943C
:1010B0003004882341F0809156038B30A9F018F05A
:1010C0008551823078F1812C912C60ECA62E6FE74F
:1010D000B62E13C08F3419F43092A00293CF109221
:1010E000A2021092A0028ECF6091510370E090E0B6
:1010F00080E00E941C0D4B015C010E94300488239B
:1011000009F404C2809156038B30B9F120F0855167
:10111000823008F4C9C1C12CD12C40ECE42E5FE729
:10112000F52E34C070905103672D6F7770E090E01A
:1011300080E00E941E0D20E030E040E853E40E9471
:101140007D0D6B017C016091520370E090E080E0C6
:101150000E941E0DA70196010E943C0E20E030E087
:1011600040E251E40E94A80E4B015C0177FEC5CF1E
:10117000B7FAB094B7F8B094C0CF60914F0370E065
:1011800090E080E00E941C0D6B017C01A5019401A0
:10119000C501B4010E941A0F882309F4ADC1509112
:1011A0008B0240918C0230918D0220918E02852F0E
:1011B000942FA32FB22F80938B0290938C02A09335
:1011C0008D02B0938E029601A701B601C7010E945D
:1011D0001A0F882309F495C17C2C6D2C5E2C4F2CA2
:1011E000C0908F02D0909002E0909102F090920215
:1011F000C601D70180938F0290939002A093910231
:10120000B093920280917B00877F80937B00209235
:101210007C0080917A00806480937A0080917A00CB
:1012200086FDFCCF6091780070917900072E000C4C
:10123000880B990B0E941E0D23E333E343E151E435
:101240000E947D0D20E030EC4FE754E40E94A80E90
:101250006093930270939402809395029093960208
:10126000A5019401C501B4010E941A0F81110CC09F
:10127000272D362D452D542D672D762D852D942D1A
:101280000E941A0F882351F04FE150E06EE272E0A5
:101290008CEA92E00E94FC020E9426051C8A1B8AAE
:1012A0001E8A1D8A188E1F8A6091490370914A0315
:1012B0006115710541F040914D0350914E03CE01EF
:1012C00043960E94C50540908B0250908C0260901E
:1012D0008D0270908E0280908F0290909002A0906C
:1012E0009102B0909202C0909302D0909402E0904C
:1012F0009502F09096026EE472E0CE0101960E9493
:101300002406BE016D5E7F4FCE0101960E94B2059C
:1013100060E572E00E949C051E861D86188A1F8665
:101320001A8A198A8017910769F0DC016D917C9106
:1013300011976115710531F014964D915C91C801BA
:101340000E94C505CE0101960E944005B301A2018D
:10135000CE0107960E94E6056CE572E0CE0101968B
:101360000E942406BE01695F7F4FCE0101960E9454
:10137000B2056AE672E00E949C05FC014481558139
:1013800060817181C8010E947005CE0101960E94A2
:101390004005CE0107960E944005B501A401CE018B
:1013A00007960E94E6056DE672E0CE0101960E9466
:1013B0002406BE01695F7F4FCE0101960E94B205EF
:1013C0006AE672E00E949C05DC0114964D915C91E6
:1013D00015976D917C91C8010E947005CE01019610
:1013E0000E944005CE0107960E944005B701A60164
:1013F000CE0107960E94E60568E772E0CE010196ED
:101400000E942406BE01695F7F4FCE0101960E94B3
:10141000B205FC014481558160817181C8010E943F
:101420007005CE0101960E944005CE0107960E94EC
:10143000400541E050E067E872E0C8010E94700595
:1014400049895A896D857E858CEA92E00E94FC026A
:101450000E942605C8010E944005CE0143960E94C5
:1014600040052D8D3E8D4F8D58A1209397023093CE
:1014700098024093990250939A02898D9A8DAB8D70
:10148000BC8D80939C0290939D02A0939E02B0938A
:101490009F0260919B02632560939B0286E00E94FD
:1014A00078020E94FF039ACD60914F0370E090E0B4
:1014B00080E00E941C0D20E030E040E853E40E94F0
:1014C0007D0D6B017C016091500370E090E080E045
:1014D0000E941E0DA70196010E943C0E20E030E004
:1014E00040E251E40E94A80E4FCEC12CD12C20EC3A
:1014F000E22E3FE7F32E53CE582D492D3A2D2B2DBA
:1015000056CE7C2C6D2C5E2C4F2C72CEA5019401F6
:10151000C501B4010E941A0F8111E7CF80928B029E
:1015200090928C02A0928D02B0928E02C12CD12C8E
:1015300080ECE82E9FE7F92E4FCE80919B02882306
:1015400009F4AFCF60E086E00E94780210929B021F
:10155000A8CF89E493E00C944005EF920F931F937A
:10156000CF93DF93E80134E047FD34E1042E000C13
:10157000550B57FF03C0519541955109E32E022F9A
:10158000242FAE010E94CB0ACE01DF91CF911F9193
:101590000F91EF9008958F929F92AF92BF92CF924A
:1015A000DF92EF92FF920F931F93CF93DF9300D0C0
:1015B00000D000D0CDB7DEB76A01F22EB02E102FCA
:1015C000FBE3AF2EA01608F41BE31F5F012F27E0FB
:1015D000AE014F5F5F4F0E94440CBC018981982F80
:1015E0009970913009F44EC09BE2E1FC04C09E2D3D
:1015F0009170E0FC49C05E2D5071E82FE87083FFC8
:1016000055C084E0911101C083E0EF2DE81B8F15D8
:1016100008F0E0E0D6018E2F20E25523C9F199238E
:1016200029F0D6019C93C60101966C0196012D5FAD
:101630003F4FE2FE33C08EE4D6018C9391E41196C5
:101640009C93119712968C93D9018E2F90E2811161
:101650002AC0E20FF32FF11D10828EEF9FEF299623
:101660000FB6F894DEBF0FBECDBFDF91CF911F91B3
:101670000F91FF90EF90DF90CF90BF90AF909F9031
:101680008F9008959DE2B7CF90E2B5CF2D93815012
:101690008111FCCFCE0ED11CE0E0C1CF8EE6D60189
:1016A0008C9391E6CCCF9D938150D1CF482F44703D
:1016B00082FF3DC084E0911101C083E08F1510F4DA
:1016C000EF2DE81BD6018E2F20E2552309F1992337
:1016D00029F0D6019C93C60101966C0196012D5FFD
:1016E0003F4FE2FE1BC089E4D6018C938EE4119635
:1016F0008C93119786E412968C93D9018E2F90E2E9
:10170000882309F4A6CF9D938150FACF2D93815061
:101710008111FCCFCE0ED11CE0E0D9CF89E6D601F5
:101720008C938EE611968C93119786E6E4CF9B01FD
:1017300077FF02C030E020E0A1E0B0E0911102C0EC
:10174000B0E0A0E0F9013196AE0FBF1F8B2C912CB9
:10175000BB2009F461C05401EFEFAE1ABE0AAA0D16
:10176000BB1DFA161B0619F014F04F2D4A1B511120
:1017700088C0E3FC59C07601A42FB0E2A1114FC08C
:10178000C40ED11C992309F45BC040E0D601119628
:10179000F60190836D01552309F448C0012F060F0F
:1017A0009A81582F507184FF03C0913309F401507E
:1017B00010160CF047C0093008F008E0EEE2FE2EEB
:1017C0005B01A01AB10885019194819491082F3F83
:1017D000320729F4D601FC92F60131966F016217A7
:1017E000730794F1021713077CF5DB01A21BB30BFF
:1017F000AA24A394B12CAC0EBD1EAA0DBB1D11963C
:101800008C9121503109D601119628153905F4F033
:10181000F60180836D01DBCFB12CA12CA0CFF701A5
:10182000B1937F01A150AACF9111B0CFD601942FCF
:1018300050E302C05D9391509111FCCFC40ED11CB6
:1018400040E0ACCF01E0BACF80E3DBCF6217730793
:1018500031F4963388F4953311F4552369F0F60189
:101860008083FD01842F90E2811108C0A40FB11D77
:101870001C9290E080E0F3CE81E3F1CF9193815010
:10188000F3CF911183CF8ACF283008F027E0332798
:10189000DA01990F311D87FD916000966105710590
:1018A00039F432602E5F3D9330E32A95E1F70895D5
:1018B0009F3F30F080387105610509F03C5F3C5F67
:1018C0003D93913008F08068911DDF93CF931F9373
:1018D0000F93FF92EF92192F987F9695E92F969587
:1018E0009695E90FFF27EA55FE4F99273327EE24F7
:1018F000FF24A701E70105900894079428F4360F08
:10190000E71EF81E491F511D660F771F881F991F7C
:101910000694A1F70590079428F4E70EF81E491FD6
:10192000561FC11D770F881F991F661F0694A1F7C8
:101930000590079428F4F80E491F561FC71FD11DA4
:10194000880F991F661F771F0694A1F705900794CB
:1019500020F4490F561FC71FD81F990F661F771F06
:10196000881F0694A9F784911095177041F0D695B9
:10197000C79557954795F794E7941A95C1F7ECE406
:10198000F1E06894159015913591659195910590C8
:101990007FE27395E118F10A430B560BC90BD0098E
:1019A000C0F7E10CF11E431F561FC91FD01D7EF466
:1019B000703311F48A95E6CFE894015030F0080FA7
:1019C0000AF40027021708F4202F2395022F7A33F8
:1019D00028F079E37D932A95E9F710C07D932A9545
:1019E00089F6069497956795379517951794E1189A
:1019F000F10A430B560BC90BD00998F023957E9141
:101A000073957A3308F070E37C932013B8F77E91D6
:101A100070617D9330F0839571E37D9370E32A9537
:101A2000E1F71124EF90FF900F911F91CF91DF917B
:101A3000992787FD90950895E89409C097FB3EF497
:101A400090958095709561957F4F8F4F9F4F99230B
:101A5000A9F0F92F96E9BB279395F6958795779589
:101A60006795B795F111F8CFFAF4BB0F11F460FF49
:101A70001BC06F5F7F4F8F4F9F4F16C0882311F0A1
:101A800096E911C0772321F09EE8872F762F05C0B5
:101A9000662371F096E8862F70E060E02AF09A9550
:101AA000660F771F881FDAF7880F9695879597F945
:101AB0000895990F0008550FAA0BE0E8FEEF1616DF
:101AC0001706E807F907C0F012161306E407F50732
:101AD00098F0621B730B840B950B39F40A2661F0A6
:101AE000232B242B252B21F408950A2609F4A14049
:101AF000A6958FEF811D811D08950E94900D0C9475
:101B0000010E0E94F30D38F00E94FA0D20F095238B
:101B100011F00C94EA0D0C94F00D11240C94350E78
:101B20000E94120E70F3959FC1F3950F50E0551F60
:101B3000629FF001729FBB27F00DB11D639FAA2722
:101B4000F00DB11DAA1F649F6627B00DA11D661F71
:101B5000829F2227B00DA11D621F739FB00DA11D92
:101B6000621F839FA00D611D221F749F3327A00D4C
:101B7000611D231F849F600D211D822F762F6A2FE8
:101B800011249F5750409AF0F1F088234AF0EE0F4D
:101B9000FF1FBB1F661F771F881F91505040A9F77A
:101BA0009E3F510580F00C94EA0D0C94350E5F3F7A
:101BB000E4F3983ED4F3869577956795B795F795B6
:101BC000E7959F5FC1F7FE2B880F911D969587952E
:101BD00097F9089597F99F6780E870E060E00895AD
:101BE0009FEF80EC089500240A9416161706180635
:101BF0000906089500240A94121613061406050611
:101C00000895092E0394000C11F4882352F0BB0FA1
:101C100040F4BF2B11F460FF04C06F5F7F4F8F4F04
:101C20009F4F089557FD9058440F551F59F05F3F3F
:101C300071F04795880F97FB991F61F09F3F79F0EE
:101C400087950895121613061406551FF2CF469570
:101C5000F1DF08C0161617061806991FF1CF8695F2
:101C60007105610508940895E894BB2766277727D6
:101C7000CB0197F908955058BB27AA270E94530E0D
:101C80000C94010E0E94F30D38F00E94FA0D20F022
:101C900039F49F3F19F426F40C94F00D0EF4E095FE
:101CA000E7FB0C94EA0DE92F0E94120E58F3BA17C5
:101CB000620773078407950720F079F4A6F50C9462
:101CC000340E0EF4E0950B2EBA2FA02D0B01B901A6
:101CD00090010C01CA01A0011124FF27591B99F0A2
:101CE000593F50F4503E68F11A16F040A22F232FAE
:101CF000342F4427585FF3CF469537952795A795FE
:101D0000F0405395C9F77EF41F16BA0B620B730BA4
:101D1000840BBAF09150A1F0FF0FBB1F661F771F15
:101D2000881FC2F70EC0BA0F621F731F841F48F4CA
:101D3000879577956795B795F7959E3F08F0B0CF53
:101D40009395880F08F09927EE0F9795879508953A
:101D50000E94BC0E0C94010E0E94FA0D58F00E94D5
:101D6000F30D40F029F45F3F29F00C94EA0D511176
:101D70000C94350E0C94F00D0E94120E68F399230A
:101D8000B1F3552391F3951B550BBB27AA27621777
:101D90007307840738F09F5F5F4F220F331F441F84
:101DA000AA1FA9F335D00E2E3AF0E0E832D09150B8
:101DB0005040E695001CCAF72BD0FE2F29D0660FA5
:101DC000771F881FBB1F261737074807AB07B0E8E8
:101DD00009F0BB0B802DBF01FF2793585F4F3AF0EE
:101DE0009E3F510578F00C94EA0D0C94350E5F3F40
:101DF000E4F3983ED4F3869577956795B795F79574
:101E00009F5FC9F7880F911D9695879597F908955B
:101E1000E1E0660F771F881FBB1F621773078407F7
:101E2000BA0720F0621B730B840BBA0BEE1F88F706
:101E3000E09508950E94590D880B990B0895EE0FB7
:101E4000FF1F881F8BBF0790F691E02D19940F9309
:101E50001F93CF93DF938230910510F482E090E0DE
:101E6000E0915E03F0915F0330E020E0B0E0A0E09D
:101E7000309799F42115310509F44AC0281B390B14
:101E800024303105D8F58A819B816115710589F16E
:101E9000FB0193838283FE0111C040815181028145
:101EA000138148175907E0F04817590799F410971C
:101EB00061F012960C93129713961C933296CF01F1
:101EC000DF91CF911F910F91089500935E031093BE
:101ED0005F03F4CF2115310551F04217530738F055
:101EE000A901DB019A01BD01DF01F801C1CFEF01BA
:101EF000F9CF90935F0380935E03CDCFFE01E20F95
:101F0000F31F819391932250310939832883D7CFCE
:101F100020915C0330915D03232B41F42091020258
:101F20003091030230935D0320935C032091000203
:101F3000309101022115310541F42DB73EB7409192
:101F4000040250910502241B350BE0915C03F091D3
:101F50005D03E217F307A0F42E1B3F0B2817390788
:101F600078F0AC014E5F5F4F2417350748F04E0FF5
:101F70005F1F50935D0340935C03819391939FCFC8
:101F8000F0E0E0E09CCFCF93DF930097E9F0FC0115
:101F9000329713821282A0915E03B0915F03ED012C
:101FA00030E020E01097A1F420813181820F931F4F
:101FB00020915C0330915D032817390709F061C057
:101FC000F0935D03E0935C03DF91CF910895EA0104
:101FD000CE17DF07E8F54A815B819E014115510567
:101FE000B1F7E901FB83EA8349915991C40FD51FE9
:101FF000EC17FD0761F4808191810296840F951F93
:10200000E90199838883828193819B838A83F0E0AD
:10201000E0E012968D919C9113970097B9F52D9160
:102020003C911197CD010296820F931F20915C0382
:1020300030915D032817390739F6309751F5109222
:102040005F0310925E03B0935D03A0935C03BCCF6B
:10205000D383C28340815181840F951FC817D9074C
:1020600061F44E5F5F4F88819981480F591F5183FA
:1020700040838A819B81938382832115310509F0F6
:10208000B0CFF0935F03E0935E039ECFFD01DC01D0
:10209000C0CF13821282D7CF4F925F926F927F92FE
:1020A0008F929F92AF92BF92CF92DF92EF92FF9268
:1020B0000F931F93CF93DF938C01009799F4CB017B
:1020C000DF91CF911F910F91FF90EF90DF90CF9014
:1020D000BF90AF909F908F907F906F905F904F9048
:1020E0000C94270FFC01E60FF71F9C0122503109C9
:1020F000E217F30708F4AEC0D901CD91DC91119736
:10210000C617D70720F1C530D10578F0CE01049766
:102110008617970750F0C61BD70B2297C193D19310
:102120006D937C93CF010E94C30FC801DF91CF91C3
:102130001F910F91FF90EF90DF90CF90BF90AF90E5
:102140009F908F907F906F905F904F9008955B016C
:10215000AC1ABD0A4C018C0E9D1EA0915E03B0917D
:102160005F03512C412CF12CE12C109731F580911B
:102170005C0390915D038815990509F05CC04616D3
:10218000570608F058C08091000290910102009714
:1021900041F48DB79EB74091040250910502841B13
:1021A000950BE817F90708F055C0F0935D03E0932D
:1021B0005C03F90171836083B8CF8D919C91119775
:1021C00012966C90129713967C901397A815B905E8
:1021D00059F56C0142E0C40ED11CCA14DB0420F195
:1021E000AC014A195B09DA011296159780F06282F8
:1021F000738251834083D9016D937C93E114F10480
:1022000071F0D7011396FC93EE9312978ECF22961E
:102210008C0F9D1FF90191838083F301EFCFF09321
:102220005F03E0935E0381CF4816590608F42C0142
:102230007D01D3019ACFCB010E94270F7C0100972B
:1022400049F0AE01B8010E942D11C8010E94C30FD0
:1022500087016BCF10E000E068CFFB01DC0102C01A
:1022600001900D9241505040D8F70895FB01DC01D8
:1022700001900D920020E1F7089511E0C4EBD1E048
:1022800000E006C0802FFE010E941F0F2196011D55
:0E229000C53BD10780E00807A9F7F894FFCFFF
:10229E00000060038000000080BF000080BF0000CF
:1022AE000000000000009203FC022903DF035A0322
:1022BE0038034C030D0A00576F726B6572005B4555
:1022CE0052524F525D2053656E736F72207265616C
:1022DE0064696E677320696E76616C6964005B0079
:1022EE005D202D20646174613A207B0074656D70F1
:1022FE00657261747572653A20002C200068756DE8
:10230E0069646974793A2000626174746572794CFB
:0A231E006576656C3A20007D000032
:00000001FF
